:020000040000FA
:06000000C1EF04F0120044
:0A0006000100BC09000060000000CA
:0400100018000000D4
:0C001400D9CFE6FFDACFE6FFE1CFD9FF3D
:10002000E2CFDAFFE652E652E652020EDB6A590EE2
:10003000106E95D8070E9AD8105C39E3590E116EE0
:100040008ED8060E93D8115C32E3060E126E87D856
:10005000050E8CD8125C2BE3240E136E80D8040E90
:1000600085D8135C24E3120E146E79D8030E7ED863
:10007000145C1DE3010E156E72D8030E77D8D8807C
:10008000155415E3310E166E6AD8020E6FD8165C41
:100090000EE3010E176E63D8020E68D8D88017548D
:1000A00006E3990E186E5BD8EF50185C02E2000E62
:1000B0004DD0FB0EDB5001E0F29C0F013F51200BB5
:1000C00001E0010EDF6EDF5002E180EC04F00F0171
:1000D0003F51800B01E0010EE76E010EE7CFDBFF21
:1000E000DB5009E04751800B01E0010EE76E020E84
:1000F000E7CFDBFF3F9FFC0E3F17030E3F132FD8C8
:10010000EFCF3AFF2CD8010E43D8020E3AD8030E97
:100110003FD8040E36D8050E3BD8060E32D8070E4F
:100120002AD8010EDB500AE03F8F020EDB5001E0BF
:10013000478FDF5006E080EC04F003D0DF5001E190
:100140003F9BFB0EDB5001E0F28C010EE552E552C5
:10015000E552E552E5CFDAFFE7CFD9FF1200FC0EFA
:10016000DBCFE9FFFD0EDBCFEAFF1200E926000E30
:10017000EA22EF501200E926000EEA22EFCF3BFF01
:100180001200E926000EEA22EFCF3AFFAFEF00F0AF
:06019000F2DFAFEF00F00A
:0A019600D9CFE6FFE1CFD9FF0C0E30
:1001A000E126DE6ADE6ADE6ADD6ADD52DD52040EB9
:1001B000DB6A050EDB6A060EDB6A070EDB6A080ED9
:1001C000DB6A090EDB6A0A0EDB6A0B0EDB6AE1EC06
:1001D00003F0F3CF10F0F4CF11F0000E10C0DFFFEA
:1001E000010E11C0DBFF020EDB6A030EDB6AD9CF02
:1001F000E9FFDACFEAFFEECF04F0EECF05F0EECF65
:1002000006F0EFCF07F0E40E096E0C0E0A6E0B6AD3
:100210000C6A92EC03F000C004F001C005F002C0CB
:1002200006F003C007F0096A040E0A6E0B6A0C6A36
:100230005CEC04F0040E04C0DBFF050E05C0DBFF20
:10024000060E06C0DBFF070E07C0DBFF040EDBCF88
:1002500004F0050EDBCF05F0060EDBCF06F0070E2F
:10026000DBCF07F0FA0E045E000E055A065A075A55
:100270001C0E096E0A6A0B6A0C6A5CEC04F0080E2C
:1002800004C0DBFF090E05C0DBFF0A0E06C0DBFF62
:100290000B0E07C0DBFF080EDBCF10F0090EDBCF23
:1002A00011F00A0EDBCF12F00B0EDBCF13F010C0F3
:1002B00004F011C005F012C006F013C007F00C0ED8
:1002C000E15C03E200D0E16AE552E16EE552E7CF7E
:0402D000D9FF120040
:0C02D400D9CFE6FFE1CFD9FF0C0EE126E8
:1002E000DE6ADE6ADE6ADD6ADD52DD52040EDB6A3A
:1002F000050EDB6A060EDB6A070EDB6A080EDB6A98
:10030000090EDB6A0A0EDB6A0B0EDB6AE1EC03F016
:10031000F3CF10F0F4CF11F0000E10C0DFFF010E8C
:1003200011C0DBFF020EDB6A030EDB6AD9CFE9FFE7
:10033000DACFEAFFEECF04F0EECF05F0EECF06F015
:10034000EFCF07F0C40E096E070E0A6E0B6A0C6A37
:1003500092EC03F000C004F001C005F002C006F00A
:1003600003C007F00968030E0A6E0B6A0C6A5CECA6
:1003700004F0040E04C0DBFF050E05C0DBFF060E13
:1003800006C0DBFF070E07C0DBFF040EDBCF04F067
:10039000050EDBCF05F0060EDBCF06F0070EDBCF38
:1003A00007F01F0E096E0A6A0B6A0C6A5CEC04F017
:1003B000080E04C0DBFF090E05C0DBFF0A0E06C0F5
:1003C000DBFF0B0E07C0DBFF080EDBCF10F0090EC2
:1003D000DBCF11F00A0EDBCF12F00B0EDBCF13F0E8
:1003E00010C004F011C005F012C006F013C007F0F1
:1003F0000C0EE15C03E200D0E16AE552E16EE552E9
:06040000E7CFD9FF120056
:0A040600D9CFE6FFDACFE6FFE1CF21
:10041000D9FFE2CFDAFF100EE12402E3E168E652F1
:10042000E16EFC0E0F013F17030E3F133ACFDFFFC3
:10043000010E3BCFDBFF020E3ACFDBFF030E3BCFBB
:10044000DBFF040E3ACFDBFF050E3BCFDBFFFC0EDC
:100450003F17030E3F13080E3ACFDBFF090E3BCFC9
:10046000DBFF0A0E3ACFDBFF0B0E3BCFDBFF0C0EA0
:100470003ACFDBFF0D0E3BCFDBFF0A0EDB50F36EF6
:10048000020EDB50F35CCDE121D8EE52020E1AD8F9
:10049000020EE926000EEA22030E14D8050E12D829
:1004A000030EE926000EEA22DFCFEFFF100EE15C1B
:1004B00002E2E16AE552E16EE552E5CFDAFFE7CF0D
:1004C000D9FF1200DBCFEFFF66EF02F0FC0EDBCFAF
:0A04D000E9FFFD0EDBCFEAFF12008A
:0604DA00D9CFE6FFDACFE6
:1004E000E6FFE1CFD9FFE2CFDAFF100EE12402E30D
:1004F000E168E652E16EFC0E0F013F173F81040EEA
:100500003ACFDBFF050E3BCFDBFF060E3ACFDBFF1A
:10051000070E3BCFDBFFFC0E3F173F810C0E3ACF9F
:10052000DBFF0D0E3BCFDBFF0E0E3ACFDBFF0F0ED6
:100530003BCFDBFF0E0EDB50F36E060EDB50F35CA1
:10054000DAE120D8030EE926000EEA22040EDBCF02
:10055000EFFF18D8020EE926000EEA22070EDBCFC5
:10056000EFFF10D8EE52060EDBCFEFFF100EE15C6E
:1005700002E2E16AE552E16EE552E5CFDAFFE7CF4C
:10058000D9FF1200FC0EDBCFE9FFFD0EDBCFEAFF47
:02059000120057
:0E059200060EF66E000EF76E000EF86E0001FB
:1005A0000900F5509B6F0900F5509C6F03E19B67B4
:1005B00001D03DD00900F550966F0900F550976FB6
:1005C0000900F550986F09000900F550E96E09001F
:1005D000F550EA6E090009000900F550996F09000D
:1005E000F5509A6F09000900F6CF9DF0F7CF9EF005
:1005F000F8CF9FF096C0F6FF97C0F7FF98C0F8FFBE
:100600000001995302E19A5307E00900F550EE6E9C
:100610009907F8E29A07F9D79DC0F6FF9EC0F7FF49
:100620009FC0F8FF00019B07000E9C5BBFD7120024
:10063000D9CFE6FFE1CFD9FFF80EDBCF78F0FA0E85
:10064000DBCF7AF0F90EDBCF7BF0FC0EDBCF7CF05A
:10065000FB0EDBCF7DF0FE0EDBCF7EF0FD0EDBCFA1
:100660007FF0CFEC04F080EC04F0E66A780EE66EE2
:10067000000EE66E0AEC00F0E552E552E5520F017D
:100680003F8F3F9B3C853C93E552E7CFD9FF12005B
:10069000800EE66E000EE66E6DEC02F0E552E5525D
:1006A000840EE66E000EE66E03EC02F0E552E552B3
:0206B000120036
:0E06B200CAEC03F08F0EE66E9AEC04F0E552EF
:1006C000010E0001686F696B010E0001686F696BB4
:1006D000CBEC00F004C060F005C061F006C062F031
:1006E00007C063F00001010E681901E1695118E1CA
:1006F000970EE66E9AEC04F0E5526AEC01F004C045
:1007000064F005C065F006C066F007C067F0020E31
:100710000001686F696B8F0EE66E9AEC04F0E5528B
:04072000D3D7120019
:0C07240004500902F3CF00F0F4CF01F004
:100730000A02F3500126000EF420026E04500B0250
:10074000F3500226000EF420036E04500C02F35006
:10075000032605500902F3500126F4500222000E30
:10076000032205500A02F3500226F45003220550DA
:100770000B02F350032606500902F3500226F450F0
:10078000032206500A02F350032607500902F350D1
:04079000032612002A
:0C079400809289929282809489949284D1
:1007A0000F0148934895F80EC1140609C16EC29C0A
:1007B000C29EC18EC70EC1143009C16EC2809D9CFD
:1007C0001200D9CFE6FFE1CFD9FF020EE126C282A7
:1007D000C2B2FED7C3CFDEFFC4CFDDFFDECF10F045
:1007E000DDCF11F010C0F3FF11C0F4FF020EE15C89
:1007F00003E200D0E16AE552E16EE552E7CFD9FFAE
:020800001200E4
:0E080200D9CFE6FFDACFE6FFE1CFD9FFE2CF94
:10081000DAFF3F0EC716C66AFD0EDB50C612FB0E8E
:10082000DB50C712FC0EDB50030A09E0010A04E0AA
:10083000020A06E1C78C04D0C78CC68801D0C688DE
:10084000FD0EDB50050A03E0010A03E1928A94865B
:1008500001D094969488949AC68AE552E5CFDAFF3F
:06086000E7CFD9FF1200F2
:0A08660094968B969488949A929CC5
:10087000898C929E898E96908D80E66AE66A010E3A
:10088000E66E01EC04F0E552E552E5521200C7B005
:1008900004D0AF0EC96E8D90FAD71200C7B004D045
:1008A000AF0EC96E899CFAD71200C7B004D0AF0E44
:0808B000C96E899EFAD71200FF
:0808B800036A026A016A006A8A
:1008C000200EE76ED8900436053606360736003619
:1008D0000136023603360950005C0A5001580B50AD
:1008E00002580C50035809E30950005E0A50015A9F
:1008F0000B50025A0C50035A042AE72EE4D7120078
:10090000D9CFE6FFDACFE6FFE1CFD9FFE2CFDAFFBA
:10091000E652E652F29C550EA76EAA0EA76E0F0184
:100920003F8BF28CE552E552E552E5CFDAFFE7CF97
:04093000D9FF1200D9
:0C093400D9CFE6FFDACFE6FFE1CFD9FF14
:10094000E2CFDAFFC30EC214106EFD0EDB407F0B48
:100950003C0B1010C26EE552E5CFDAFFE7CFD9FFAE
:02096000120083
:0E096200B00EF36E00EE00F00E0E01D8120083
:10097000EA6002D0EE6AFCD7F350E9601200EE6A3A
:02098000FCD7A2
:0E0982001DEE00F02DEE00F0F86A0F9CC9EC9F
:0E09900002F0DDEC04F059EC03F0FBD712008E
:02099E00CD8604
:1009A0000F013F6B3E6B3FAF06D03FBB02D080ECE8
:0A09B00004F00F013F9F3F9B12006F
:0209BA00120029
:0409BC000000000037
:1009C0000000000000000000000000000000000027
:0409D0000000000023
:020000040001F9
:01FFF800AC5C
:01FFFA00FA0C
:01FFFC00FD07
:01FFFD00FB08
:00000001FF
